S012000048656C6C6F576F726C642E7372656316
S11300000C942A000C943F000C943F000C943F0085
S11300100C943F000C943F000C943F000C943F0060
S11300200C943F000C943F000C943F000C943F0050
S11300300C943F000C943F000C943F000C943F0040
S11300400C943F000C943F000C943F000C943F0030
S11300500C943F0011241FBECFE5D8E0DEBFCDBF16
S113006010E0A0E6B0E0E4E2F1E002C005900D92F9
S1130070AE36B107D9F70E944D000C9490000C9451
S1130080000010BC85E089B986E880BD88E08AB9A3
S113009008958CB95D9BFECF0895EF92FF920F9364
S11300A01F93CF93DF931F92CDB7DEB78FEF87BB3C
S11300B01ABA89830E9441000F2EF0E6EF2EF0E079
S11300C0FF2EF02D898188BB89818095898328EE54
S11300D033E005C00197F1F72150310919F088EC9C
S11300E090E0F8CFF7018081882349F001E610E021
S11300F00E944900F80181918F018111F9CF19B350
S11301001170812F0E9449001111DCCF80E090E032
S11301100F90DF91CF911F910F91FF90EF90089571
S1070120F894FFCF7D
S111012468656C6C6F20776F726C640A000063
S9030000FC
