:100000000C942A000C9447000C9447000C94470071
:100010000C948F000C9447000C9447000C944700FC
:100020000C9447000C9447000C9464000C94470017
:100030000C9447000C94AB000C9447000C944700C0
:100040000C9447000C9447000C9447000C94470014
:100050000C94470011241FBECFE5D8E0DEBFCDBF12
:1000600010E0A0E6B0E0E0ECF1E002C005900D92F7
:10007000A236B107D9F720E0A2E6B0E001C01D9298
:10008000A638B207E1F70E9449000C94DE000C94F8
:10009000000080E090E0089593B3982329F095B391
:1000A0008095892385BB089595B3892B85BB0895D9
:1000B0008AEE8093600081E085BD14BC83BD89B762
:1000C000806889BFA89A08951F920F920FB60F9269
:1000D00011242F933F934F935F936F937F938F934D
:1000E0009F93AF93BF93EF93FF931092850010926D
:1000F00084000E94580082E00E944C00FF91EF9122
:10010000BF91AF919F918F917F916F915F914F912F
:100110003F912F910F900FBE0F901F9018951F9237
:100120000F920FB60F9211248F939F9380916000CE
:100130008F5F809360009091610089172CF015BC4F
:1001400089B78F7789BFA8989F918F910F900FBE25
:100150000F901F9018951F920F920FB60F921124B7
:100160002F934F935F938F939F93EF93FF932091E0
:10017000820009C09CB1821799F0FA01EE59FF4F35
:100180009083809383004091830050E0CA010196E0
:100190008F719078992324F40197806E9F6F019658
:1001A0005F99E8CFFF91EF919F918F915F914F9170
:1001B0002F910F900FBE0F901F901895F894FFCFBE
:0201C000EAF85B
:00000001FF
