:100000000C942A000C9447000C9447000C94470071
:100010000C9429010C9447000C9447000C94470061
:100020000C9447000C9447000C9402010C94470078
:100030000C9447000C94B3010C9447000C944700B7
:100040000C9447000C9447000C9447000C94470014
:100050000C94470011241FBECFE5D8E0DEBFCDBF12
:1000600010E0A0E6B0E0E0EDF3E002C005900D92F4
:10007000A037B107D9F720E0A0E7B0E001C01D929A
:10008000A03AB207E1F70E9449000C94E6010C94F3
:100090000000DF92EF92FF920F931F93CF93DF93B5
:1000A0001F92CDB7DEB70E94EA008FEF87BB1ABA66
:1000B00089830E94450180916000882309F448C02B
:1000C00001E610E00E944E01D8018D918D01811151
:1000D000F9CF3EC0898188BB89818095898328EECC
:1000E00033E005C00197F1F72150310919F088EC90
:1000F00090E0F8CF89B38170D82EC8010E945201D8
:10010000882319F1F8018081833059F4828181308C
:1001100041F48AEA0E944E01D80113968C910E9404
:10012000D300F8018181882381F0EE2DFF24F39420
:10013000FE0EF0E0E059FF4F82810E944E01EF2D4C
:10014000D80111968C91F81688F3D110C3CF04C052
:1001500000E710E0E12CBECF80E090E00F90DF914F
:10016000CF911F910F91FF90EF90DF900895F89439
:1001700080917A008F5F80937A00089580917A0051
:10018000815080937A00811101C07894089593B3CF
:10019000982329F095B38095892385BB089595B35D
:1001A000892B85BB0895CF93C8EFC80F8C2F0E9471
:1001B0004E01C83F0CF4C8EFC9300CF0C8E00E94F3
:1001C000B700C0936E000E94BE008C2F0E944E01AB
:1001D000CF910895A8988FEF84BB12BE8DE083BFA6
:1001E00080E58CBF89B7826089BF08958AEE8093CD
:1001F0006D0081E085BD14BC83BD89B7806889BF6F
:10020000A89A08951F920F920FB60F9211242F9360
:100210003F934F935F936F937F938F939F93AF938E
:10022000BF93EF93FF930E94F60082E00E94C70005
:10023000FF91EF91BF91AF919F918F917F916F91BE
:100240005F914F913F912F910F900FBE0F901F9094
:1002500018951F920F920FB60F9211248F939F93B0
:1002600080916D008F5F80936D0090916E00891773
:100270002CF015BC89B78F7789BFA8989F918F9173
:100280000F900FBE0F901F90189510BC85E089B994
:1002900086E880BD88E98AB9789408958CB95D9B19
:1002A000FECF08951F93CF93DF93DC01F0919F0061
:1002B00070917D0060917C0080917B0090919E0008
:1002C00010E042C0492F50E09A012F5F3F4F2F713D
:1002D0003078332334F421503109206E3F6F2F5F83
:1002E0003F4FE22F711107C0EA01C258DF4F922F32
:1002F0007881612F29C0611109C042585F4FEA011E
:100300009881862F6EEF690F922F1EC08617E0F43A
:1003100091E0980F9D01280F311D42585F4FEA016F
:100320008881E9018A8369130DC0E0939E00609380
:100330007C0060937B007C9311969C9310927D00CF
:1003400081E00DC0892F9E2FF913BCCF70937D00E3
:1003500090939E0060937C0080937B0080E0DF910F
:10036000CF911F9108951F920F920FB60F921124F3
:100370002F934F935F938F939F93EF93FF932091CE
:100380009E0009C09CB1821799F0FA01E258FF4F14
:10039000908380939F0040919F0050E0CA01019696
:1003A0008F719078992324F40197806E9F6F019646
:1003B0005F99E8CFFF91EF919F918F915F914F915E
:1003C0002F910F900FBE0F901F901895F894FFCFAC
:1003D00068656C6C6F20776F726C640A00EAF800D5
:00000001FF
